{
  "contractName": "Splitter",
  "abi": [
    {
      "constant": true,
      "inputs": [
        {
          "name": "",
          "type": "uint256"
        }
      ],
      "name": "recipients",
      "outputs": [
        {
          "name": "balance",
          "type": "uint256"
        },
        {
          "name": "holder",
          "type": "address"
        }
      ],
      "payable": false,
      "stateMutability": "view",
      "type": "function",
      "signature": "0xd1bc76a1"
    },
    {
      "inputs": [
        {
          "name": "_bob",
          "type": "address"
        },
        {
          "name": "_carol",
          "type": "address"
        }
      ],
      "payable": true,
      "stateMutability": "payable",
      "type": "constructor",
      "signature": "constructor"
    },
    {
      "anonymous": false,
      "inputs": [
        {
          "indexed": false,
          "name": "_weis",
          "type": "uint256"
        }
      ],
      "name": "LogSplittedSucceded",
      "type": "event",
      "signature": "0x591237ea6ef13d0a254778a360af17aa8e456f394ed96a81cb1150e7d4d249ab"
    },
    {
      "anonymous": false,
      "inputs": [
        {
          "indexed": false,
          "name": "_owner",
          "type": "uint256"
        }
      ],
      "name": "LogEtherSended",
      "type": "event",
      "signature": "0x210763f868428b8691ddfafdf6a264694756dc4d80a0f0bed889dee3f9e54d56"
    },
    {
      "anonymous": false,
      "inputs": [
        {
          "indexed": false,
          "name": "alice",
          "type": "uint256"
        },
        {
          "indexed": false,
          "name": "bob",
          "type": "uint256"
        }
      ],
      "name": "LogEtherChecked",
      "type": "event",
      "signature": "0x1e19bc0ad6b84b7f611ff1aaed2ffc12d407ad9612be2fdbed8c5d5fc89de1a7"
    },
    {
      "constant": false,
      "inputs": [],
      "name": "sendEther",
      "outputs": [],
      "payable": true,
      "stateMutability": "payable",
      "type": "function",
      "signature": "0x0e29df22"
    },
    {
      "constant": true,
      "inputs": [],
      "name": "getBalanceBob",
      "outputs": [
        {
          "name": "myNumber",
          "type": "uint256"
        }
      ],
      "payable": false,
      "stateMutability": "view",
      "type": "function",
      "signature": "0xd734426c"
    }
  ],
  "bytecode": "0x60806040526040516040806105f38339810180604052604081101561002357600080fd5b810190808051906020019092919080519060200190929190505050600073ffffffffffffffffffffffffffffffffffffffff168273ffffffffffffffffffffffffffffffffffffffff161415151561007a57600080fd5b600073ffffffffffffffffffffffffffffffffffffffff168173ffffffffffffffffffffffffffffffffffffffff16141515156100b657600080fd5b33600160006101000a81548173ffffffffffffffffffffffffffffffffffffffff021916908373ffffffffffffffffffffffffffffffffffffffff160217905550816002600060028110151561010857fe5b6002020160010160006101000a81548173ffffffffffffffffffffffffffffffffffffffff021916908373ffffffffffffffffffffffffffffffffffffffff160217905550806002600160028110151561015e57fe5b6002020160010160006101000a81548173ffffffffffffffffffffffffffffffffffffffff021916908373ffffffffffffffffffffffffffffffffffffffff160217905550505061043f806101b46000396000f3fe608060405260043610610057576000357c0100000000000000000000000000000000000000000000000000000000900463ffffffff1680630e29df221461005c578063d1bc76a114610066578063d734426c146100e8575b600080fd5b610064610113565b005b34801561007257600080fd5b5061009f6004803603602081101561008957600080fd5b8101908080359060200190929190505050610374565b604051808381526020018273ffffffffffffffffffffffffffffffffffffffff1673ffffffffffffffffffffffffffffffffffffffff1681526020019250505060405180910390f35b3480156100f457600080fd5b506100fd6103bd565b6040518082815260200191505060405180910390f35b60003411151561012257600080fd5b600060023481151561013057fe5b061415610143576000808190555061014c565b60016000819055505b6002600060028110151561015c57fe5b6002020160010160009054906101000a900473ffffffffffffffffffffffffffffffffffffffff1673ffffffffffffffffffffffffffffffffffffffff166108fc6002348115156101a957fe5b049081150290604051600060405180830381858888f193505050501580156101d5573d6000803e3d6000fd5b50600260016002811015156101e657fe5b6002020160010160009054906101000a900473ffffffffffffffffffffffffffffffffffffffff1673ffffffffffffffffffffffffffffffffffffffff166108fc60023481151561023357fe5b049081150290604051600060405180830381858888f1935050505015801561025f573d6000803e3d6000fd5b507f210763f868428b8691ddfafdf6a264694756dc4d80a0f0bed889dee3f9e54d56346040518082815260200191505060405180910390a17f1e19bc0ad6b84b7f611ff1aaed2ffc12d407ad9612be2fdbed8c5d5fc89de1a7600260006002811015156102c857fe5b6002020160010160009054906101000a900473ffffffffffffffffffffffffffffffffffffffff1673ffffffffffffffffffffffffffffffffffffffff16316002600160028110151561031757fe5b6002020160010160009054906101000a900473ffffffffffffffffffffffffffffffffffffffff1673ffffffffffffffffffffffffffffffffffffffff1631604051808381526020018281526020019250505060405180910390a1565b60028160028110151561038357fe5b600202016000915090508060000154908060010160009054906101000a900473ffffffffffffffffffffffffffffffffffffffff16905082565b6000600260006002811015156103cf57fe5b6002020160010160009054906101000a900473ffffffffffffffffffffffffffffffffffffffff1673ffffffffffffffffffffffffffffffffffffffff163190509056fea165627a7a72305820d1aad8e661f72ecf25f273d270aed271d65cf67746ea555b38f41ef0bc5444700029",
  "source": "\n\n\n\n\npragma solidity ^0.5.0;\n\ncontract Splitter {\n\n   uint ownerWeis;\n   address owner;\n\n   WalletOwner[2] public recipients;\n\n   struct WalletOwner {\n       uint balance;\n       address payable holder;\n   }\n\n   modifier validEtherSend {\n       require(msg.value > 0);\n       _;\n   }\n\n   event LogSplittedSucceded(uint _weis);\n   event LogEtherSended(uint _owner);\n   event LogEtherChecked(uint alice, uint bob);\n\n   constructor(address payable _bob, address payable _carol) public payable {\n       require(_bob != address(0x0));\n       require(_carol != address(0x0));\n       owner = msg.sender;\n\n       recipients[0].holder = _bob;\n       recipients[1].holder = _carol;\n   }\n\n   function sendEther() public validEtherSend payable {\n       if (msg.value % 2 == 0) {\n           ownerWeis = 0;\n       } else {\n           ownerWeis = 1;\n       }\n       address(recipients[0].holder).transfer(msg.value / 2);\n       address(recipients[1].holder).transfer(msg.value / 2);\n\n       emit LogEtherSended(msg.value);\n       emit LogEtherChecked(recipients[0].holder.balance, recipients[1].holder.balance);\n   }\n\n    function getBalanceBob() public view returns (uint myNumber) {\n\n\n        return address(uint160(recipients[0].holder)).balance;\n    }\n\n\n\n}",
  "sourcePath": "/Users/piotrkalinski/dev/gownokody/spli/eth-splitter/contracts/Splitter.sol",
  "compiler": {
    "name": "solc",
    "version": "0.5.0+commit.1d4f565a.Emscripten.clang"
  },
  "schemaVersion": "3.0.6",
  "updatedAt": "2019-04-16T21:58:19.244Z",
  "devdoc": {
    "methods": {}
  },
  "userdoc": {
    "methods": {}
  }
}