{
  "contractName": "Splitter",
  "abi": [
    {
      "inputs": [],
      "payable": true,
      "stateMutability": "payable",
      "type": "constructor"
    },
    {
      "anonymous": false,
      "inputs": [
        {
          "indexed": false,
          "name": "_weis",
          "type": "uint256"
        }
      ],
      "name": "LogSplittedSucceded",
      "type": "event"
    },
    {
      "anonymous": false,
      "inputs": [
        {
          "indexed": false,
          "name": "_owner",
          "type": "uint256"
        }
      ],
      "name": "LogEtherSended",
      "type": "event"
    },
    {
      "anonymous": false,
      "inputs": [
        {
          "indexed": false,
          "name": "alice",
          "type": "uint256"
        },
        {
          "indexed": false,
          "name": "bob",
          "type": "uint256"
        }
      ],
      "name": "LogEtherChecked",
      "type": "event"
    },
    {
      "constant": false,
      "inputs": [
        {
          "name": "_bob",
          "type": "address"
        },
        {
          "name": "_carol",
          "type": "address"
        }
      ],
      "name": "split",
      "outputs": [
        {
          "name": "",
          "type": "bool"
        }
      ],
      "payable": true,
      "stateMutability": "payable",
      "type": "function"
    },
    {
      "constant": true,
      "inputs": [
        {
          "name": "user",
          "type": "address"
        }
      ],
      "name": "getBalance",
      "outputs": [
        {
          "name": "myNumber",
          "type": "uint256"
        }
      ],
      "payable": false,
      "stateMutability": "view",
      "type": "function"
    }
  ],
  "bytecode": "0x608060405233600160006101000a81548173ffffffffffffffffffffffffffffffffffffffff021916908373ffffffffffffffffffffffffffffffffffffffff160217905550610497806100546000396000f3fe6080604052600436106100295760003560e01c80630f2c93291461002e578063f8b2cb4f146100aa575b600080fd5b6100906004803603604081101561004457600080fd5b81019080803573ffffffffffffffffffffffffffffffffffffffff169060200190929190803573ffffffffffffffffffffffffffffffffffffffff16906020019092919050505061010f565b604051808215151515815260200191505060405180910390f35b3480156100b657600080fd5b506100f9600480360360208110156100cd57600080fd5b81019080803573ffffffffffffffffffffffffffffffffffffffff169060200190929190505050610427565b6040518082815260200191505060405180910390f35b6000803411610186576040517f08c379a000000000000000000000000000000000000000000000000000000000815260040180806020018281038252601b8152602001807f56616c7565206d75737420626520626967676572207468616e2030000000000081525060200191505060405180910390fd5b600073ffffffffffffffffffffffffffffffffffffffff168373ffffffffffffffffffffffffffffffffffffffff161415610229576040517f08c379a00000000000000000000000000000000000000000000000000000000081526004018080602001828103825260198152602001807f426f6220616464726573732063616e6e6f74206265203078300000000000000081525060200191505060405180910390fd5b600073ffffffffffffffffffffffffffffffffffffffff168273ffffffffffffffffffffffffffffffffffffffff1614156102af576040517f08c379a00000000000000000000000000000000000000000000000000000000081526004018080602001828103825260238152602001806104496023913960400191505060405180910390fd5b6000600234816102bb57fe5b0614156102ce57600080819055506102d7565b60016000819055505b8273ffffffffffffffffffffffffffffffffffffffff166108fc600234816102fb57fe5b049081150290604051600060405180830381858888f19350505050158015610327573d6000803e3d6000fd5b508173ffffffffffffffffffffffffffffffffffffffff166108fc6002348161034c57fe5b049081150290604051600060405180830381858888f19350505050158015610378573d6000803e3d6000fd5b507f210763f868428b8691ddfafdf6a264694756dc4d80a0f0bed889dee3f9e54d56346040518082815260200191505060405180910390a17f1e19bc0ad6b84b7f611ff1aaed2ffc12d407ad9612be2fdbed8c5d5fc89de1a78373ffffffffffffffffffffffffffffffffffffffff16318473ffffffffffffffffffffffffffffffffffffffff1631604051808381526020018281526020019250505060405180910390a16001905092915050565b60008173ffffffffffffffffffffffffffffffffffffffff1631905091905056fe4361726f6c20616464726573732063616e6e6f74206265203078302061732077656c6ca165627a7a723058200f1a4f7eec0f84e4c733a6cf2b0b4aaf3821d40fe52bc46aed12d62a6f0a9b6e0029",
  "source": "\n\n\n\n\npragma solidity ^0.5.0;\n\ncontract Splitter {\n\n   uint ownerWeis;\n   address owner;\n   uint storedData;\n\n   modifier validEtherSend {\n       require(msg.value > 0, \"Value must be bigger than 0\");\n       _;\n   }\n\n   event LogSplittedSucceded(uint _weis);\n   event LogEtherSended(uint _owner);\n   event LogEtherChecked(uint alice, uint bob);\n\n   constructor() public payable {\n       owner = msg.sender;\n   }\n\n   function split(address payable _bob, address payable _carol) public validEtherSend payable returns (bool) {\n       require(_bob != address(0x0), \"Bob address cannot be 0x0\");\n       require(_carol != address(0x0), \"Carol address cannot be 0x0 as well\");\n       if (msg.value % 2 == 0) {\n           ownerWeis = 0;\n       } else {\n           ownerWeis = 1;\n       }\n       address(_bob).transfer(msg.value / 2);\n       address(_carol).transfer(msg.value / 2);\n\n       emit LogEtherSended(msg.value);\n       emit LogEtherChecked(address(_bob).balance, address(_bob).balance);\n       return true;\n   }\n\n    function getBalance(address user) public view returns (uint myNumber) {\n        return address(user).balance;\n    }\n}",
  "sourcePath": "/home/john/workspace-blockchain/eth-splitter/contracts/Splitter.sol",
  "compiler": {
    "name": "solc",
    "version": "0.5.8+commit.23d335f2.Emscripten.clang"
  },
  "schemaVersion": "3.0.11",
  "updatedAt": "2019-08-07T20:36:57.522Z",
  "devdoc": {
    "methods": {}
  },
  "userdoc": {
    "methods": {}
  }
}