{
  "contractName": "Splitter",
  "abi": [
    {
      "constant": true,
      "inputs": [
        {
          "name": "",
          "type": "uint256"
        }
      ],
      "name": "recipients",
      "outputs": [
        {
          "name": "balance",
          "type": "uint256"
        },
        {
          "name": "holder",
          "type": "address"
        }
      ],
      "payable": false,
      "stateMutability": "view",
      "type": "function",
      "signature": "0xd1bc76a1"
    },
    {
      "inputs": [
        {
          "name": "_bob",
          "type": "address"
        },
        {
          "name": "_carol",
          "type": "address"
        }
      ],
      "payable": true,
      "stateMutability": "payable",
      "type": "constructor",
      "signature": "constructor"
    },
    {
      "anonymous": false,
      "inputs": [
        {
          "indexed": false,
          "name": "_weis",
          "type": "uint256"
        }
      ],
      "name": "LogSplittedSucceded",
      "type": "event",
      "signature": "0x591237ea6ef13d0a254778a360af17aa8e456f394ed96a81cb1150e7d4d249ab"
    },
    {
      "anonymous": false,
      "inputs": [
        {
          "indexed": false,
          "name": "_owner",
          "type": "uint256"
        }
      ],
      "name": "LogEtherSended",
      "type": "event",
      "signature": "0x210763f868428b8691ddfafdf6a264694756dc4d80a0f0bed889dee3f9e54d56"
    },
    {
      "anonymous": false,
      "inputs": [
        {
          "indexed": false,
          "name": "alice",
          "type": "uint256"
        },
        {
          "indexed": false,
          "name": "bob",
          "type": "uint256"
        }
      ],
      "name": "LogEtherChecked",
      "type": "event",
      "signature": "0x1e19bc0ad6b84b7f611ff1aaed2ffc12d407ad9612be2fdbed8c5d5fc89de1a7"
    },
    {
      "constant": false,
      "inputs": [],
      "name": "sendEther",
      "outputs": [],
      "payable": true,
      "stateMutability": "payable",
      "type": "function",
      "signature": "0x0e29df22"
    },
    {
      "constant": true,
      "inputs": [],
      "name": "getBalance",
      "outputs": [
        {
          "name": "xd",
          "type": "address"
        }
      ],
      "payable": false,
      "stateMutability": "view",
      "type": "function",
      "signature": "0x12065fe0"
    }
  ],
  "bytecode": "0x60806040526040516040806105d38339810180604052604081101561002357600080fd5b810190808051906020019092919080519060200190929190505050600073ffffffffffffffffffffffffffffffffffffffff168273ffffffffffffffffffffffffffffffffffffffff161415151561007a57600080fd5b600073ffffffffffffffffffffffffffffffffffffffff168173ffffffffffffffffffffffffffffffffffffffff16141515156100b657600080fd5b33600160006101000a81548173ffffffffffffffffffffffffffffffffffffffff021916908373ffffffffffffffffffffffffffffffffffffffff16021790555060006002600060028110151561010957fe5b600202016000018190555060006002600160028110151561012657fe5b6002020160000181905550816002600060028110151561014257fe5b6002020160010160006101000a81548173ffffffffffffffffffffffffffffffffffffffff021916908373ffffffffffffffffffffffffffffffffffffffff160217905550806002600160028110151561019857fe5b6002020160010160006101000a81548173ffffffffffffffffffffffffffffffffffffffff021916908373ffffffffffffffffffffffffffffffffffffffff16021790555050506103e5806101ee6000396000f3fe608060405260043610610057576000357c0100000000000000000000000000000000000000000000000000000000900463ffffffff1680630e29df221461005c57806312065fe014610066578063d1bc76a1146100bd575b600080fd5b61006461013f565b005b34801561007257600080fd5b5061007b610331565b604051808273ffffffffffffffffffffffffffffffffffffffff1673ffffffffffffffffffffffffffffffffffffffff16815260200191505060405180910390f35b3480156100c957600080fd5b506100f6600480360360208110156100e057600080fd5b8101908080359060200190929190505050610370565b604051808381526020018273ffffffffffffffffffffffffffffffffffffffff1673ffffffffffffffffffffffffffffffffffffffff1681526020019250505060405180910390f35b60003411151561014e57600080fd5b6000349050600060028281151561016157fe5b061415610183576000808190555060028181151561017b57fe5b04905061019e565b600160008190555060026001820381151561019a57fe5b0490505b600260006002811015156101ae57fe5b6002020160010160009054906101000a900473ffffffffffffffffffffffffffffffffffffffff1673ffffffffffffffffffffffffffffffffffffffff166108fc829081150290604051600060405180830381858888f1935050505015801561021b573d6000803e3d6000fd5b507f210763f868428b8691ddfafdf6a264694756dc4d80a0f0bed889dee3f9e54d56816040518082815260200191505060405180910390a17f1e19bc0ad6b84b7f611ff1aaed2ffc12d407ad9612be2fdbed8c5d5fc89de1a76002600060028110151561028457fe5b6002020160010160009054906101000a900473ffffffffffffffffffffffffffffffffffffffff1673ffffffffffffffffffffffffffffffffffffffff1631600260016002811015156102d357fe5b6002020160010160009054906101000a900473ffffffffffffffffffffffffffffffffffffffff1673ffffffffffffffffffffffffffffffffffffffff1631604051808381526020018281526020019250505060405180910390a150565b60006002600060028110151561034357fe5b6002020160010160009054906101000a900473ffffffffffffffffffffffffffffffffffffffff16905090565b60028160028110151561037f57fe5b600202016000915090508060000154908060010160009054906101000a900473ffffffffffffffffffffffffffffffffffffffff1690508256fea165627a7a72305820f9e11b9328ff35e3619442db6f049212b4df1b20985ccde045a51caa61f945aa0029",
  "source": "\n\n\n\n\npragma solidity ^0.5.0;\n\ncontract Splitter {\n\n   uint ownerWeis;\n   address owner;\n\n   WalletOwner[2] public recipients;\n\n   struct WalletOwner {\n       uint balance;\n       address payable holder;\n   }\n\n   modifier validEtherSend {\n       require(msg.value > 0);\n       _;\n   }\n\n   event LogSplittedSucceded(uint _weis);\n   event LogEtherSended(uint _owner);\n   event LogEtherChecked(uint alice, uint bob);\n\n   constructor(address payable _bob, address payable _carol) public payable {\n       require(_bob != address(0x0));\n       require(_carol != address(0x0));\n       owner = msg.sender;\n       recipients[0].balance = 0;\n       recipients[1].balance = 0;\n       recipients[0].holder = _bob;\n       recipients[1].holder = _carol;\n   }\n\n   function sendEther() public validEtherSend payable {\n       uint amount = msg.value;\n       if (amount % 2 == 0) {\n           ownerWeis = 0;\n           amount = amount / 2;\n       } else {\n           ownerWeis = 1;\n           amount = (amount - 1) / 2;\n       }\n       address(recipients[0].holder).transfer(amount);\n       emit LogEtherSended(amount);\n       emit LogEtherChecked(recipients[0].holder.balance, recipients[1].holder.balance);\n   }\n\n    function getBalance() public view returns (address xd) {\n\n        return address(recipients[0].holder);\n    }\n\n}",
  "sourcePath": "/Users/piotrkalinski/dev/gownokody/spli/contracts/Splitter.sol",
  "compiler": {
    "name": "solc",
    "version": "0.5.0+commit.1d4f565a.Emscripten.clang"
  },
  "schemaVersion": "3.0.6",
  "updatedAt": "2019-04-14T23:44:11.995Z",
  "devdoc": {
    "methods": {}
  },
  "userdoc": {
    "methods": {}
  }
}