{
  "contractName": "Splitter",
  "abi": [
    {
      "inputs": [],
      "payable": true,
      "stateMutability": "payable",
      "type": "constructor",
      "signature": "constructor"
    },
    {
      "anonymous": false,
      "inputs": [
        {
          "indexed": false,
          "name": "_weis",
          "type": "uint256"
        }
      ],
      "name": "LogSplittedSucceded",
      "type": "event",
      "signature": "0x591237ea6ef13d0a254778a360af17aa8e456f394ed96a81cb1150e7d4d249ab"
    },
    {
      "anonymous": false,
      "inputs": [
        {
          "indexed": false,
          "name": "_owner",
          "type": "uint256"
        }
      ],
      "name": "LogEtherSended",
      "type": "event",
      "signature": "0x210763f868428b8691ddfafdf6a264694756dc4d80a0f0bed889dee3f9e54d56"
    },
    {
      "anonymous": false,
      "inputs": [
        {
          "indexed": false,
          "name": "alice",
          "type": "uint256"
        },
        {
          "indexed": false,
          "name": "bob",
          "type": "uint256"
        }
      ],
      "name": "LogEtherChecked",
      "type": "event",
      "signature": "0x1e19bc0ad6b84b7f611ff1aaed2ffc12d407ad9612be2fdbed8c5d5fc89de1a7"
    },
    {
      "constant": false,
      "inputs": [
        {
          "name": "_bob",
          "type": "address"
        },
        {
          "name": "_carol",
          "type": "address"
        }
      ],
      "name": "split",
      "outputs": [
        {
          "name": "",
          "type": "bool"
        }
      ],
      "payable": true,
      "stateMutability": "payable",
      "type": "function",
      "signature": "0x0f2c9329"
    },
    {
      "constant": true,
      "inputs": [
        {
          "name": "user",
          "type": "address"
        }
      ],
      "name": "getBalance",
      "outputs": [
        {
          "name": "myNumber",
          "type": "uint256"
        }
      ],
      "payable": false,
      "stateMutability": "view",
      "type": "function",
      "signature": "0xf8b2cb4f"
    },
    {
      "constant": false,
      "inputs": [
        {
          "name": "x",
          "type": "uint256"
        }
      ],
      "name": "set",
      "outputs": [],
      "payable": false,
      "stateMutability": "nonpayable",
      "type": "function",
      "signature": "0x60fe47b1"
    },
    {
      "constant": true,
      "inputs": [],
      "name": "get",
      "outputs": [
        {
          "name": "",
          "type": "uint256"
        }
      ],
      "payable": false,
      "stateMutability": "view",
      "type": "function",
      "signature": "0x6d4ce63c"
    }
  ],
  "bytecode": "0x608060405233600160006101000a81548173ffffffffffffffffffffffffffffffffffffffff021916908373ffffffffffffffffffffffffffffffffffffffff1602179055506103fb806100546000396000f3fe608060405260043610610062576000357c0100000000000000000000000000000000000000000000000000000000900463ffffffff1680630f2c93291461006757806360fe47b1146100e35780636d4ce63c1461011e578063f8b2cb4f14610149575b600080fd5b6100c96004803603604081101561007d57600080fd5b81019080803573ffffffffffffffffffffffffffffffffffffffff169060200190929190803573ffffffffffffffffffffffffffffffffffffffff1690602001909291905050506101ae565b604051808215151515815260200191505060405180910390f35b3480156100ef57600080fd5b5061011c6004803603602081101561010657600080fd5b81019080803590602001909291905050506103b0565b005b34801561012a57600080fd5b506101336103ba565b6040518082815260200191505060405180910390f35b34801561015557600080fd5b506101986004803603602081101561016c57600080fd5b81019080803573ffffffffffffffffffffffffffffffffffffffff1690602001909291905050506103c4565b6040518082815260200191505060405180910390f35b600080341115156101be57600080fd5b600073ffffffffffffffffffffffffffffffffffffffff168373ffffffffffffffffffffffffffffffffffffffff16141515156101fa57600080fd5b600073ffffffffffffffffffffffffffffffffffffffff168273ffffffffffffffffffffffffffffffffffffffff161415151561023657600080fd5b600060023481151561024457fe5b0614156102575760008081905550610260565b60016000819055505b8273ffffffffffffffffffffffffffffffffffffffff166108fc60023481151561028657fe5b049081150290604051600060405180830381858888f193505050501580156102b2573d6000803e3d6000fd5b508173ffffffffffffffffffffffffffffffffffffffff166108fc6002348115156102d957fe5b049081150290604051600060405180830381858888f19350505050158015610305573d6000803e3d6000fd5b507f210763f868428b8691ddfafdf6a264694756dc4d80a0f0bed889dee3f9e54d56346040518082815260200191505060405180910390a17f1e19bc0ad6b84b7f611ff1aaed2ffc12d407ad9612be2fdbed8c5d5fc89de1a78373ffffffffffffffffffffffffffffffffffffffff16318473ffffffffffffffffffffffffffffffffffffffff1631604051808381526020018281526020019250505060405180910390a192915050565b8060028190555050565b6000600254905090565b60006005905091905056fea165627a7a723058200dcba304484365c6978808834298492dba9e411a94def77a58a1959563a44cbf0029",
  "source": "\n\n\n\n\npragma solidity ^0.5.0;\n\ncontract Splitter {\n\n   uint ownerWeis;\n   address owner;\n    uint storedData;\n\n   modifier validEtherSend {\n       require(msg.value > 0);\n       _;\n   }\n\n   event LogSplittedSucceded(uint _weis);\n   event LogEtherSended(uint _owner);\n   event LogEtherChecked(uint alice, uint bob);\n\n   constructor() public payable {\n       owner = msg.sender;\n   }\n\n   function split(address payable _bob, address payable _carol) public validEtherSend payable returns (bool) {\n       require(_bob != address(0x0));\n       require(_carol != address(0x0));\n       if (msg.value % 2 == 0) {\n           ownerWeis = 0;\n       } else {\n           ownerWeis = 1;\n       }\n       address(_bob).transfer(msg.value / 2);\n       address(_carol).transfer(msg.value / 2);\n\n       emit LogEtherSended(msg.value);\n       emit LogEtherChecked(address(_bob).balance, address(_bob).balance);\n   }\n\n    function getBalance(address user) public view returns (uint myNumber) {\n        return 5;\n        // \n    }\n\n\n    function set(uint x) public {\n        storedData = x;\n    }\n\n    function get() public view returns (uint) {\n        return storedData;\n    }\n\n}",
  "sourcePath": "/Users/piotrkalinski/dev/gownokody/spli/eth-splitter/contracts/Splitter.sol",
  "compiler": {
    "name": "solc",
    "version": "0.5.0+commit.1d4f565a.Emscripten.clang"
  },
  "schemaVersion": "3.0.6",
  "updatedAt": "2019-04-18T13:06:15.448Z",
  "devdoc": {
    "methods": {}
  },
  "userdoc": {
    "methods": {}
  }
}